:100000000C9454020C9471020C9471020C947102C1
:100010000C9471020C9471020C9471020C94710294
:100020000C9471020C9471020C9471020C94710284
:100030000C9471020C9471020C9471020C94710274
:100040000C9471020C9471020C9471020C94710264
:100050000C947102FFE0FFD1AFFF32FFD0FFFEFF33
:10006000E0FFD1AEFFD0FFFEFFE0FFD11002FFFEA8
:10007000FFD0FFE0FFC1FFD1AED580A83FD3004045
:100080008D142002A1C8DA1281CFD9F1DB402EA451
:10009000A6AFFFD0FFFE01060D00FE09016602D6E5
:1000A000207FFE0BFE0AFE0D006022196980808011
:1000B000808080800080183363A0A0A00357675021
:1000C00050F850F850500259692078A0A0702828A4
:1000D000F02002596948A85010204050A8900258BA
:1000E0006840A0A040A09890682813638080801189
:1000F0003B6B2040408080808080404020113B6BE3
:10010000804040202020202040408006556520A8C7
:1001100070A8200455652020F8202011336360402A
:1001200080065161F811336340E0400259690808C4
:1001300010102040408080025969205088888888AB
:100140008850200259692060A02020202020F80239
:1001500059697088880810204080F8025969F808A9
:1001600010207008088870025969101030505090A3
:10017000F81010025969F88080B0C8080888700229
:10018000596970888080F088888870025969F808F9
:10019000101020204040400259697088888870887B
:1001A0008888700259697088888878080888701172
:1001B000386840E040000040E04011386840E040CE
:1001C00000006040800259690810204080402010E3
:1001D00008045464F80000F80259698040201008AF
:1001E0001020408002596970888808102020002063
:1001F00002596970888898A8A8B080780259692047
:1002000050888888F8888888025969F0484848707A
:10021000484848F0025969708880808080808870E2
:10022000025969F048484848484848F0025969F876
:10023000808080F0808080F8025969F8808080F0AA
:10024000808080800259697088808080988888705A
:1002500002596988888888F888888888123969E00E
:1002600040404040404040E00259693810101010B2
:1002700010109060025969888890A0C0A09088886A
:100280000259698080808080808080F80259698866
:1002900088D8A8A88888888802596988C8C8A8A862
:1002A00098988888025969708888888888888870B2
:1002B000025969F0888888F080808080015A6A70CD
:1002C000888888888888A87008025969F088888892
:1002D000F0A090888802596970888080700808882A
:1002E00070025969F820202020202020200259691E
:1002F000888888888888888870025969888888886A
:10030000505050202002596988888888A8A8A8A839
:100310005002596988885050205050888802596985
:10032000888850502020202020025969F808101099
:1003300020404080F8113B6BE0808080808080808E
:100340008080E00259698080404020101008081128
:100350003B6BE0202020202020202020E008536359
:10036000205088015161F82A22628040025666704E
:100370000878889868025969808080F08888888821
:10038000F0025666708880808870025969080808F3
:100390007888888888780256667088F88088700225
:1003A000596930484040F0404040400058687088EB
:1003B000888878088870025969808080B0C88888E9
:1003C00088881238684000C040404040E0004A6AD7
:1003D00010003010101010909060025969808080D9
:1003E00090A0C0A09088123969C040404040404071
:1003F00040E0025666D0A8A8A8A888025666B0C8F1
:10040000888888880256667088888888700058684E
:10041000F0888888F080808000586878888888789C
:10042000080808025666B0C8808080800256667050
:1004300088601088700258684040F0404040483062
:100440000256668888888898680256668888885028
:1004500050200256668888A8A8A850025666885080
:10046000202050880058688888889868088870021A
:100470005666F810204080F8015B6B182020202081
:10048000C0202020201822196980808080808080F0
:100490008080015B6BC0202020201820202020C0FD
:1004A00008536348A890FF0011241FBECFE5D8E091
:1004B000DEBFCDBF10E0A0E6B0E0E4EAFAE102C0A2
:1004C00005900D92AC3BB107D9F721E0ACEBB0E061
:1004D00001C01D92AD37B207E1F70E94ED0C0C94FC
:1004E000500D0C9400000F93FC010150040F84A9DF
:1004F00096A9941788F0081710F4041778F421507F
:10050000260F83A995A9961758F0281760F481E063
:10051000261720F40F910895081778F780E0FACF96
:100520002817A8F7FBCF81E0F5CFDB011496ED91FA
:10053000FC9130E020E061E00994DB011496ED913C
:10054000FC9130E020E063E00994DB011496ED912A
:10055000FC9130E020E040E064E00994DB01149677
:10056000ED91FC9130E020E041E064E00994DB0192
:100570001496ED91FC9130E020E062E00994DB01FB
:100580001496ED91FC9130E020E065E00994DB01E8
:100590001496ED91FC9166E00994CF92DF92EF9270
:1005A000FF920F931F93CF93DF938C016B017A011E
:1005B00080E0F701C49181110FC081E0CF3F41F08D
:1005C0004C2FB601C8010E94BF028823C1F180E010
:1005D000FFEFEF1AFF0AEDCF4FEFCF3F91F3CE3F82
:1005E00079F1C03FA0F7C03E38F04C2F4F70B601F4
:1005F000C8010E94B702EBCFC03D38F04C2F4F70BE
:10060000B601C8010E949D02E2CFC03C98F0B6013D
:10061000C8010E94A502C295C07FCE5FD0E0CE0186
:100620000E943B04B601C8010E94AE02CE010E94A6
:100630003B04CDCF8C2F90E0C7FFF9CFC8CF80E02F
:10064000DF91CF911F910F91FF90EF90DF90CF90AE
:100650000895CF93DF93EC018BA5882389F088E779
:100660000E94DC03811104C080E0DF91CF910895E6
:100670008EA1811107C00E9415048823A9F31BA62F
:1006800081E0F3CF80E4F7CF0F931F93CF93DF93F5
:10069000C62FD42F8901633001F138F4613099F00D
:1006A000623009F449C0C1E012C0663029F16730F8
:1006B00091F16530C1F70E942903811117C00E9492
:1006C0003504C0E004C0FC0186A50E94A6038C2F5F
:1006D000DF91CF911F910F910895FC0116A221E0A7
:1006E00023A74111E0CF0E943504DDCF8D2F0E945A
:1006F00015048111D8CFE3CF0E9429038823F9F292
:10070000DD2389F2F80181918F010E94150488236D
:10071000B1F2D150F5CF0E942903882381F2DD2365
:1007200011F2F80184910E941504C82F882379F2F0
:100730000F5F1F4FD150F3CFFC0146A321E023A749
:10074000B2CF1092BE001092BC0008958093BD00FD
:1007500011B884FF04C082E080B90C94A10380E248
:10076000FBCFCF93DF9300D0CDB7DEB720ED37E0DE
:100770003A83298396B7982311F081E011C029812B
:100780003A81232B91F48091BD0081FDF6CF8091B9
:10079000BE0081110FC091E09093BE006093BC0039
:1007A0000F900F90DF91CF91089529813A812150C8
:1007B0003109DECF80E0F4CFCF93C82F84EA86BF23
:1007C00061E080E80E94B103811103C080E0CF9115
:1007D000089581B1887F883069F0803159F0809127
:1007E000BE008111F3CF92E09093BE0091E0909310
:1007F000BC00EDCFC3B984E886BF62E080E80E9408
:10080000B103882319F38091BD0081FD0CC081B133
:10081000887F883141F08091BE008111D7CF92E06E
:100820009093BE00E4CF81E0D2CF83B984E886BF45
:1008300063E080E80E94B1038823B1F08091BD009D
:1008400081FD0FC081B1887F883259F08091BE0050
:10085000811109C092E09093BE0093E09093BC0098
:10086000089581E0089580E0089584E986BF64E0FA
:1008700080E10C94B1032EEC37E0009709F4089561
:10088000F9013197F1F70197F8CFAF92BF92CF926C
:10089000DF92FF920F931F93CF93DF938C01EB01B5
:1008A000F42E690180E1481709F446C0841790F0DE
:1008B000EAE04E17B1F196014F2DBE01C801DF915C
:1008C000CF911F910F91FF90DF90CF90BF90AF908D
:1008D0000C949008F1E14F1709F43FC085E14813EB
:1008E000EACFAA80BB8048E650E0C8010E94CD0252
:1008F000F5014481406BBE01C8010E94BF0241E086
:10090000BE01C8010E94B702AE01B801C5010E9434
:100910002A088823C1F040E0BE01C8010E949D0260
:10092000CACF42E0C8010E94950240E750E0BE01F4
:10093000C8010E94CD02BFCF4FE550E0BE01C80103
:100940000E94CD0281E0DF91CF911F910F91FF9026
:10095000DF90CF90BF90AF90089544E550E0EECF88
:10096000FC01E60FF11D849190E0982F88273196C5
:10097000E4918E0F911D0895FC01849108950E94C9
:10098000BC04882321F0823011F083E0089586E0D2
:10099000089580E0089566E00C94B00468E00C943B
:1009A000B0040A96FC01849108950B96FC01849191
:1009B0000895BF92CF92DF92EF92FF920F931F9311
:1009C000CF93DF938C01E62EDC011496CD91DC9160
:1009D000CE010E94BC04F82EF801848195810E940A
:1009E000BF04B82EF1E0CC24CA94FF1202C02FE05D
:1009F000C22ED80114968D919C910E94D104F82E9C
:100A0000F801848195810E94D504D82ED8011496CE
:100A10008D919C910E94CE04B0E6BE1520F5009702
:100A200011F1C80FD91F91E6F92EDE1468F5D8012F
:100A300050961C92509753961C92539754961C9222
:100A4000549751961C92519752961C92D0E0C0E058
:100A5000CE01DF91CF911F910F91FF90EF90DF902A
:100A6000CF90BF900895F801848195810E94CB04B6
:100A7000F0E4FE1538F4009729F0C80FD91F81E47F
:100A8000F82ED3CF6196D1CFDF1488F28B2D90E072
:100A9000FE0124912F3F29F42196FD1441F2F39495
:100AA000F7CFFE104BC0D80114968D919C910E94F7
:100AB000BC049E012F5F3F4FFE01882311F082305E
:100AC000E1F48491D80153968C935397F9012491C2
:100AD00054962C935497FE013396E4915096EC93E0
:100AE0005097FE013496E4915196EC935197FE0194
:100AF0003596E4915296EC93ABCF8491982F9F70EA
:100B00009250D80152969C93529782958F7051962D
:100B10008C935197F9012491822F8F7054968C9366
:100B2000549722952F7053962C935397FE0132962B
:100B3000E491E295EF705096EC938ACF3296E4916F
:100B4000EC21E80FF92FF11DCE0FDF1FA6CF6F921A
:100B50007F928F929F92AF92BF92CF92DF92EF924D
:100B6000FF920F931F93CF93DF93EC01662E142F08
:100B7000622F0E94D9046C0180E0C114D104B1F04D
:100B80008C819D810E94BF04B82EFB88EC888989E6
:100B9000680E1E198A89181B0E2D2F2D412F662DC8
:100BA000CE010E947302811110C08889DF91CF911C
:100BB0001F910F91FF90EF90DF90CF90BF90AF907B
:100BC0009F908F907F906F900895CB0CD11C87E001
:100BD000F80EF694F694F694E10E8F2C912C1E15D7
:100BE00021F3762C56010DC0F501049120E0412F30
:100BF000672DCE010E94B307FFEFAF1ABF0A88E04E
:100C0000780E8A2D8C198F1578F3C80CD91C1F5FAC
:100C1000E6CFCF92DF92EF92FF920F931F93CF9385
:100C2000DF937C01D62E042FC22E132FDC015596A4
:100C3000ED91FC910995080FCC2DD12F10E0299151
:100C400021110AC0812FDF91CF911F910F91FF9049
:100C5000EF90DF90CF900895402F6D2DC7010E9437
:100C6000A705D80E180FEBCFDC0114962D913C91FF
:100C700015972115310569F157968C915797F90110
:100C8000811128C03596E4915896EC935897F90154
:100C90003C96E4915996EC93599758968C915897B5
:100CA000082E000C990B59962C915997821B91098B
:100CB00027FD93955A962C915A97203441F0829FA4
:100CC000C001112426E0969587952A95E1F75B9659
:100CD0008C930895813041F43F96E4915896EC93BB
:100CE0005897F9017096D5CF3D96E4915896EC93BC
:100CF0005897F9013E96CDCF29EC34E0FC01368BB4
:100D0000258B0895CF93DF93EC018C819D8186170D
:100D1000970749F07D836C83CE010E94340689ECED
:100D200094E09E8B8D8BDF91CF9108951F93CF938D
:100D3000DF93EC011D821C821F821E82198681E0D6
:100D4000888782E28A871F861E86FE01B396CE01BF
:100D5000C1962FEF2193E817F907E1F711E018A3E7
:100D6000CE010E947C061F8B188E198E80E48A8F1C
:100D70001B8E89EC99E09AAB89ABDF91CF911F91E3
:100D80000895DB01ED91FC9109940F931F93CF938C
:100D9000DF93EC018B01E9A9FAA982E0099530E023
:100DA00020E04AE0B801CE010E94C106182FE9A94F
:100DB000FAA983E00995E9A9FAA980E00995812FAC
:100DC000DF91CF911F910F9108950F931F93CF93B0
:100DD000DF93EC018B01E9A9FAA982E00995E9A961
:100DE000FAA981E0099530E020E044E1B801CE01A4
:100DF0000E94C1069E012D5C3F4F47E1B801CE0124
:100E00000E94C106E9A9FAA980E0DF91CF911F9164
:100E10000F910994EF92FF921F93CF93DF93EC0110
:100E20007B01E9A9FAA982E00995E9A9FAA981E07B
:100E3000099530E020E045E1B701CE010E94C106EE
:100E4000182F882341F09E012D5C3F4F47E1B701E9
:100E5000CE010E94C106E9A9FAA980E00995812F77
:100E6000DF91CF911F91FF90EF900895CF93DF9383
:100E70001F92CDB7DEB79E012F5F3F4F46E40E9421
:100E8000C10689810F90DF91CF910895CF93DF93B1
:100E90001F92CDB7DEB79E012F5F3F4F47E40E9400
:100EA000C10689810F90DF91CF91089530E020E055
:100EB00048E40C94C106CF93DF93EC016A817B81F7
:100EC0000E94360788836A817B81CE010E94460793
:100ED00089836A817B81CE010E9456078B879E01A0
:100EE0002D5C3F4F6A817B8147E1CE01DF91CF913D
:100EF0000C94C106CF93DF93EC016A817B810E9441
:100F0000C506882321F0CE010E945B0781E0DF91B6
:100F1000CF910895EF92FF921F93CF93DF93EC014F
:100F20007B01142F0E949606FB82EA821EA7CE0147
:100F3000DF91CF911F91FF90EF900C947A07FC0105
:100F4000628173810C94E506CF93DF93EC01EE850B
:100F5000FF85309709F009956A817B81CE01DF9189
:100F6000CF910C940A070F93FC0182819381648FC7
:100F7000458F278F068F9F01245E3F4F4BE3BC01B7
:100F8000CF010F910C94C106FC0112828081815027
:100F9000838314820895FC0180819281980F92834B
:100FA0002181921760F494819F5F94839381890FCC
:100FB000821710F08FEF820F838381E0089580E025
:100FC0000895DC011696ED91FC91179715968C917A
:100FD0008E0F9F2F911D1192E817F907E1F70895E1
:100FE000FC0191E08381861708F490E031E0461718
:100FF00008F030E021E08281481708F420E0892FD2
:10100000832B82239323892B0895DC01FB0110821B
:1010100012968C911297818315968C911597815019
:10102000828313968C9183830895FC01DB011196D2
:101030009C91119713962C9148E0490F213031F083
:10104000233011F0492F02C0492F9850692FCF014A
:101050000C94F007FC01CB01BA0126813781458150
:101060000C94C702DC011696ED91FC91179712962D
:101070008C91481B477081E090E001C0880F4A9531
:10108000EAF7E60FF11D3081222319F0832B8083CC
:10109000089580958323FBCFFB014181DC011296EB
:1010A0002C911297421768F013962C9113972417DE
:1010B00040F0608115962C91621718F424810C94ED
:1010C00032080895DF92EF92FF920F931F93CF9310
:1010D000DF937C01EB011A818B8100E0D12C8430FD
:1010E00048F490E0FC01E458FF4FD08088589F4FAF
:1010F000FC01008117FF04C0BE01C7010E944C081B
:1011000088818D0D88838981800F8983110F91F7E4
:10111000DF91CF911F910F91FF90EF90DF90089595
:101120000F931F93CF93DF938901FB01C281D3817A
:10113000423321F168F4453131F1473169F14431ED
:10114000B9F4CE010E94E107CE010E94C40710C08D
:10115000463439F1473449F14B3351F4B901CE01EA
:101160000E941508882321F0B801CE010E94620870
:1011700081E0DF91CF911F910F910895B901CE01C8
:101180000E944C08F5CFCE010E94CB07882389F33B
:10119000CE010E94E107ECCFB901CE010E94050803
:1011A000E7CF8D81F8018083E3CF8981FBCFCF9298
:1011B000DF92EF92FF920F931F93CF93DF937C0107
:1011C000162FD42EC22FD22FC62EC20E6C2D6D1B01
:1011D000D83028F56C2F687F610F8C2F8695869507
:1011E000869598EF899FC00D1124CC2379F087E074
:1011F000C827CF5FC7700FEF10E001C0000FCA957E
:10120000EAF720E04D2DC7010E94B307DF91CF918F
:101210001F910F91FF90EF90DF90CF9008950FEF07
:1012200020E04D2DC7010E94B307D850CFCFCF92F9
:10123000DF92EF92FF920F931F93CF93DF937C0186
:10124000D62E142FC22FD22FC42EC20E4C2D4D1BC2
:10125000D83028F54C2F487F410F8C2F86958695E6
:10126000869598EF899FC00D1124CC2379F087E0F3
:10127000C827CF5FC7700FEF10E001C0000FCA95FD
:10128000EAF721E06D2DC7010E94B307DF91CF91EE
:101290001F910F91FF90EF90DF90CF9008950FEF87
:1012A00021E06D2DC7010E94B307D850CFCFDF9248
:1012B000EF92FF920F931F93CF93DF937C01D62F72
:1012C000142FD22E0E947302882319F12D2D412F45
:1012D0006D2FC7010E94D708202F412F6D2FC70106
:1012E0000E9417096FEF6D0D6D0F202F412FC70161
:1012F0000E9417094FEF400F410F2D2D6D2FC70191
:10130000DF91CF911F910F91FF90EF90DF900C94A0
:10131000D708DF91CF911F910F91FF90EF90DF9051
:101320000895EF92FF920F931F93CF93DF937C0169
:10133000D62FC42F122F040F212F4C2F6D2FC70132
:101340000E94D708CF5FC013F7CFDF91CF911F91D5
:101350000F91FF90EF900895DF92EF92FF920F931D
:101360001F93CF93DF93EC01162FF42EE22E0E94F1
:101370007302882331F02E2D4F2D612FCE010E9454
:101380009109DF91CF911F910F91FF90EF90DF9026
:10139000089508950E946D0B80E00E94730B81E018
:1013A0000C94790BEF92FF920F931F93CF93E82E3B
:1013B00080E00E947F0B07E010E0C0E0F12CC70145
:1013C000002E02C0959587950A94E2F780FF18C019
:1013D00081E00E94850B81E00E947F0BCC0F0E9470
:1013E0008B0B8111C16080E00E947F0B01501109BD
:1013F00030F78C2FCF911F910F91FF90EF900895B0
:1014000080E0E7CFCF9380E00E94790B8FEF0E94BE
:10141000D209C82F81E00E94790B8C2FCF910895BB
:101420000E94020A982F907381E009F080E00895ED
:101430000E94020A85FD04C084FD04C08FEF089558
:1014400080E0089581E00895EF92FF920F931F933B
:10145000CF93DF93EC018B017C01E40EF11CCE15E0
:10146000DF0539F4DF91CF911F910F91FF90EF903D
:10147000089589910E94D209F80181938F01EFCFDD
:101480000F931F93CF93DF93EC018C01060F111D77
:10149000C017D10729F4DF91CF911F910F910895C3
:1014A00089910E94D209F4CFCF93DF93C82FD62F12
:1014B00080E00E94790B8C2F8F7180620E94D2098C
:1014C0008D2F0E94D20981E0DF91CF910C94790B8E
:1014D000CF93DF93EC0180E00E94790B81E60E94BC
:1014E000D20940914101BE01CE010E94240A81E04F
:1014F0000E94790B60E487E0DF91CF910C94540A4D
:1015000080E00E94790B82EE0E94D20981E00E9465
:10151000790B60E787E00E94540A80E00E94730B19
:101520006BE080E00E94540A81E00C94730B60939E
:101530004101682F85E00E94540A60E081E10E9429
:10154000540A6091410182E10E94540A60E083E103
:101550000E94540A60E084E10E94540A60E085E140
:101560000E94540A60E086E10E94540A66E086E028
:101570000E94540A68E080E00E94540A63E081E01F
:101580000E94540A63E082E00E94540A6FE484E0FF
:101590000E94540A60E08CE10E94540A0C94800A74
:1015A00060E787E00E94540A6AE080E00C94540AE5
:1015B000CF93DF93EC0180E00E94730B0E94D00A6E
:1015C00080E00E94790B81EE0E94D20981E00E94A6
:1015D000790B80E00E94790B80EA0E94D209609129
:1015E0004101CE010E94400A81E00E94790B81E016
:1015F000DF91CF910C94730B0F931F93CF93DF93D5
:10160000082FEB01142F80E00E94790B802F8F713F
:101610000E94D209412FBE01CE010E94240A81E01E
:10162000DF91CF911F910F910C94790BCF93DF93A2
:101630001F92CDB7DEB741E0BE016F5F7F4F87E1FC
:101640000E94FC0A898181700F90DF91CF910895EB
:101650000E94020A91E086FD05C00E94160B91E0EF
:10166000811190E0892F08950F931F93CF93DF93FB
:10167000C82F8B01D42F80E00E94790B8C2F8F71A3
:1016800080620E94D2096D2FC8010E94400A81E049
:10169000DF91CF911F910F910C94790BCF93DF9332
:1016A000EC0180E00E94730B45E0BE018BE00E94DC
:1016B000340B81E0DF91CF910C94730BCF93DF93C8
:1016C000EC0145E0BC018AE00E94340B45E0BE011C
:1016D00080E1DF91CF910C94340BBA9ABB9ABF9AF8
:1016E000BD9ABE980895882311F0C29A0895C298B1
:1016F0000895882311F0C39A0895C3980895882304
:1017000011F0C79A0895C7980895882311F0C59AD3
:101710000895C598089586B38074089540E060E602
:1017200070E085E491E00C948A070E94CA0963E0A6
:1017300084E00E94970A83E790E00E944E0B8EE6B9
:1017400090E00C945E0BCF93DF93EC0185E491E085
:101750000E949F0766E970E085E491E00E9482069E
:101760009E0143E260E085E491E00E94090685E481
:1017700091E00E94A4078111EDCF84E690E0DF9113
:10178000CF910C943B040F93CF93DF93CDB7DEB78B
:1017900068970FB6F894DEBF0FBECDBF80913F01B2
:1017A0004AE050E0BE01635F7F4F90E00E94100D61
:1017B000809140014AE050E0BE016F5F7F4F90E0B2
:1017C0000E94100D85E491E00E949F070DE02EE13C
:1017D00043E066E485E491E00E9457092EE147E189
:1017E00066E485E491E00E94570980913F0109E099
:1017F0002AE045E068E4813009F068E585E491E09D
:101800000E94AC098091400109E02AE049E168E4C6
:10181000813009F068E585E491E00E94AC0966E951
:1018200070E085E491E00E94820620E830E04FE01D
:1018300060E085E491E00E94090629E830E04FE08D
:1018400067E385E491E00E9409062CE830E04FE070
:1018500069E685E491E00E94090620E930E043E270
:1018600060E085E491E00E94090629E830E043E267
:1018700067E385E491E00E9409062CE830E043E24A
:1018800069E685E491E00E94090685E491E00E9402
:10189000A40781119BCF82E390E00E943B046896ED
:1018A0000FB6F894DEBF0FBECDBFDF91CF910F9181
:1018B0000895CF9382E491E00E94D80A0E94100A12
:1018C0008111FCCF0E94180AC82F80937C018823C5
:1018D00089F089E990E00E94A30B2FEF89E698E157
:1018E000215080409040E1F700C00000C1E08C2F03
:1018F000CF9108950E94800AFACF82B3806C82BB98
:1019000011BA8AEA90E00E94A30B10924201109251
:1019100043018FEF809344010E94590C80937C0116
:101920002FE788E391E0215080409040E1F700C02C
:1019300000000E94280B8823E1F382E491E00E94DA
:10194000680A809144018E3F51F480914201809356
:101950003F0180914301809340010C94C30B89E9BE
:1019600090E00C94A30BCF9380913F01C1E08C27B2
:1019700080933F0180934201809140018093430115
:101980008FEE809344010E94590C80937C01882340
:1019900029F080913F018C2780933F01CF910895DA
:1019A000CF9380914001C1E08C27809340019091BA
:1019B0003F0190934201809343018FEE8093440155
:1019C0000E94590C80937C01882329F0809140016A
:1019D0008C2780934001CF9108950E948E0B0E9426
:1019E000950B0E947D0C0E94C30B86990BC00E9430
:1019F000B30C2FEF89EF90E0215080409040E1F749
:101A000000C000008799EFCF0E94D00C2FEF89EF24
:101A100090E0215080409040E1F700C00000E3CF0B
:101A20004532510520F4423010F00C941B0DFB019F
:101A30001082CB010895BB274A3031F4992322F458
:101A4000BDE2909581959F4F0C94270DBB27FB011C
:101A50005527AA27880F991FAA1FA41710F0A41BA7
:101A600083955051B9F7A05DAA3308F0A95DA19301
:101A7000009779F7B111B1931192CB010C94400DFD
:101A8000DC01FC01672F71917723E1F7329704C0E5
:101A90007C916D9370836291AE17BF07C8F3089570
:041AA000F894FFCFE8
:101AA400450466004403084000000080BF00D7D707
:101AB400D7D7D7E7E7E7E7E7000100FF0100FF001A
:101AC4004B616E616C20313A004F4E004F46460028
:101AD4004B616E616C20323A00426C616420747216
:101AE400616E736D69736A692100496E69636A6125
:0C1AF4006C697A61636A612E2E2E00007E
:00000001FF
